{
  "contractName": "SimpleBlockchain",
  "abi": [
    {
      "inputs": [],
      "stateMutability": "nonpayable",
      "type": "constructor"
    },
    {
      "inputs": [
        {
          "internalType": "uint256",
          "name": "",
          "type": "uint256"
        }
      ],
      "name": "chain",
      "outputs": [
        {
          "internalType": "uint256",
          "name": "index",
          "type": "uint256"
        },
        {
          "internalType": "uint256",
          "name": "timestamp",
          "type": "uint256"
        },
        {
          "internalType": "string",
          "name": "data",
          "type": "string"
        },
        {
          "internalType": "bytes32",
          "name": "previousHash",
          "type": "bytes32"
        },
        {
          "internalType": "bytes32",
          "name": "hash",
          "type": "bytes32"
        },
        {
          "internalType": "uint256",
          "name": "nonce",
          "type": "uint256"
        }
      ],
      "stateMutability": "view",
      "type": "function",
      "constant": true
    },
    {
      "inputs": [],
      "name": "difficulty",
      "outputs": [
        {
          "internalType": "uint256",
          "name": "",
          "type": "uint256"
        }
      ],
      "stateMutability": "view",
      "type": "function",
      "constant": true
    },
    {
      "inputs": [
        {
          "internalType": "string",
          "name": "data",
          "type": "string"
        }
      ],
      "name": "addBlock",
      "outputs": [],
      "stateMutability": "nonpayable",
      "type": "function"
    },
    {
      "inputs": [],
      "name": "getChain",
      "outputs": [
        {
          "components": [
            {
              "internalType": "uint256",
              "name": "index",
              "type": "uint256"
            },
            {
              "internalType": "uint256",
              "name": "timestamp",
              "type": "uint256"
            },
            {
              "internalType": "string",
              "name": "data",
              "type": "string"
            },
            {
              "internalType": "bytes32",
              "name": "previousHash",
              "type": "bytes32"
            },
            {
              "internalType": "bytes32",
              "name": "hash",
              "type": "bytes32"
            },
            {
              "internalType": "uint256",
              "name": "nonce",
              "type": "uint256"
            }
          ],
          "internalType": "struct SimpleBlockchain.Block[]",
          "name": "",
          "type": "tuple[]"
        }
      ],
      "stateMutability": "view",
      "type": "function",
      "constant": true
    },
    {
      "inputs": [],
      "name": "validateChain",
      "outputs": [
        {
          "internalType": "bool",
          "name": "",
          "type": "bool"
        }
      ],
      "stateMutability": "view",
      "type": "function",
      "constant": true
    }
  ],
  "bytecode": "0x608060405260026001553480156200001657600080fd5b50620000616040518060400160405280600d81526020017f47656e6573697320426c6f636b000000000000000000000000000000000000008152506000801b6200006860201b60201c565b50620006b5565b600080600080549050905060004290506000806200009084848989866200019860201b60201c565b90505b620000a3620001d660201b60201c565b8160001c10620000da578180620000ba90620005e8565b925050620000d284848989866200019860201b60201c565b905062000093565b60006040518060c0016040528086815260200185815260200189815260200188815260200183815260200184815250905060008190806001815401808255809150506001900390600052602060002090600602016000909190919091506000820151816000015560208201518160010155604082015181600201908051906020019062000169929190620001fd565b50606082015181600301556080820151816004015560a082015181600501555050819550505050505092915050565b60008585858585604051602001620001b59594939291906200031a565b60405160208183030381529060405280519060200120905095945050505050565b6000600154610100620001ea91906200052d565b6002620001f89190620003f0565b905090565b8280546200020b90620005b2565b90600052602060002090601f0160209004810192826200022f57600085556200027b565b82601f106200024a57805160ff19168380011785556200027b565b828001600101855582156200027b579182015b828111156200027a5782518255916020019190600101906200025d565b5b5090506200028a91906200028e565b5090565b5b80821115620002a95760008160009055506001016200028f565b5090565b620002c2620002bc8262000568565b62000636565b82525050565b6000620002d5826200037f565b620002e181856200038a565b9350620002f38185602086016200057c565b80840191505092915050565b620003146200030e8262000572565b62000640565b82525050565b6000620003288288620002ff565b6020820191506200033a8287620002ff565b6020820191506200034c8286620002c8565b91506200035a8285620002ad565b6020820191506200036c8284620002ff565b6020820191508190509695505050505050565b600081519050919050565b600081905092915050565b6000808291508390505b6001851115620003e757808604811115620003bf57620003be6200064a565b5b6001851615620003cf5780820291505b8081029050620003df85620006a8565b94506200039f565b94509492505050565b6000620003fd8262000572565b91506200040a8362000572565b9250620004397fffffffffffffffffffffffffffffffffffffffffffffffffffffffffffffffff848462000441565b905092915050565b60008262000453576001905062000526565b8162000463576000905062000526565b81600181146200047c57600281146200048757620004bd565b600191505062000526565b60ff8411156200049c576200049b6200064a565b5b8360020a915084821115620004b657620004b56200064a565b5b5062000526565b5060208310610133831016604e8410600b8410161715620004f75782820a905083811115620004f157620004f06200064a565b5b62000526565b62000506848484600162000395565b9250905081840481111562000520576200051f6200064a565b5b81810290505b9392505050565b60006200053a8262000572565b9150620005478362000572565b9250828210156200055d576200055c6200064a565b5b828203905092915050565b6000819050919050565b6000819050919050565b60005b838110156200059c5780820151818401526020810190506200057f565b83811115620005ac576000848401525b50505050565b60006002820490506001821680620005cb57607f821691505b60208210811415620005e257620005e162000679565b5b50919050565b6000620005f58262000572565b91507fffffffffffffffffffffffffffffffffffffffffffffffffffffffffffffffff8214156200062b576200062a6200064a565b5b600182019050919050565b6000819050919050565b6000819050919050565b7f4e487b7100000000000000000000000000000000000000000000000000000000600052601160045260246000fd5b7f4e487b7100000000000000000000000000000000000000000000000000000000600052602260045260246000fd5b60008160011c9050919050565b6110c180620006c56000396000f3fe608060405234801561001057600080fd5b50600436106100575760003560e01c806319cae4621461005c57806332e21ae71461007a5780635852cc0c14610098578063dc6548b0146100cd578063fd778dd9146100e9575b600080fd5b610064610107565b6040516100719190610bde565b60405180910390f35b61008261010d565b60405161008f9190610ba1565b60405180910390f35b6100b260048036038101906100ad91906108ef565b610230565b6040516100c496959493929190610bf9565b60405180910390f35b6100e760048036038101906100e291906108ae565b610304565b005b6100f1610373565b6040516100fe9190610bc3565b60405180910390f35b60015481565b60606000805480602002602001604051908101604052809291908181526020016000905b8282101561022757838290600052602060002090600602016040518060c0016040529081600082015481526020016001820154815260200160028201805461017890610f3a565b80601f01602080910402602001604051908101604052809291908181526020018280546101a490610f3a565b80156101f15780601f106101c6576101008083540402835291602001916101f1565b820191906000526020600020905b8154815290600101906020018083116101d457829003601f168201915b50505050508152602001600382015481526020016004820154815260200160058201548152505081526020019060010190610131565b50505050905090565b6000818154811061024057600080fd5b906000526020600020906006020160009150905080600001549080600101549080600201805461026f90610f3a565b80601f016020809104026020016040519081016040528092919081815260200182805461029b90610f3a565b80156102e85780601f106102bd576101008083540402835291602001916102e8565b820191906000526020600020905b8154815290600101906020018083116102cb57829003601f168201915b5050505050908060030154908060040154908060050154905086565b60008060016000805490506103199190610ea4565b81548110610350577f4e487b7100000000000000000000000000000000000000000000000000000000600052603260045260246000fd5b906000526020600020906006020160040154905061036e828261061d565b505050565b600080600190505b6000805490508110156106145760008082815481106103c3577f4e487b7100000000000000000000000000000000000000000000000000000000600052603260045260246000fd5b90600052602060002090600602016040518060c0016040529081600082015481526020016001820154815260200160028201805461040090610f3a565b80601f016020809104026020016040519081016040528092919081815260200182805461042c90610f3a565b80156104795780601f1061044e57610100808354040283529160200191610479565b820191906000526020600020905b81548152906001019060200180831161045c57829003601f168201915b50505050508152602001600382015481526020016004820154815260200160058201548152505090506000806001846104b29190610ea4565b815481106104e9577f4e487b7100000000000000000000000000000000000000000000000000000000600052603260045260246000fd5b90600052602060002090600602016040518060c0016040529081600082015481526020016001820154815260200160028201805461052690610f3a565b80601f016020809104026020016040519081016040528092919081815260200182805461055290610f3a565b801561059f5780601f106105745761010080835404028352916020019161059f565b820191906000526020600020905b81548152906001019060200180831161058257829003601f168201915b50505050508152602001600382015481526020016004820154815260200160058201548152505090506105e982600001518360200151846040015184608001518660a0015161072f565b8260800151146105ff576000935050505061061a565b5050808061060c90610f6c565b91505061037b565b50600190505b90565b6000806000805490509050600042905060008061063d848489898661072f565b90505b61064861076b565b8160001c1061067357818061065c90610f6c565b92505061066c848489898661072f565b9050610640565b60006040518060c0016040528086815260200185815260200189815260200188815260200183815260200184815250905060008190806001815401808255809150506001900390600052602060002090600602016000909190919091506000820151816000015560208201518160010155604082015181600201908051906020019061070092919061078e565b50606082015181600301556080820151816004015560a082015181600501555050819550505050505092915050565b6000858585858560405160200161074a959493929190610b46565b60405160208183030381529060405280519060200120905095945050505050565b600060015461010061077d9190610ea4565b60026107899190610d86565b905090565b82805461079a90610f3a565b90600052602060002090601f0160209004810192826107bc5760008555610803565b82601f106107d557805160ff1916838001178555610803565b82800160010185558215610803579182015b828111156108025782518255916020019190600101906107e7565b5b5090506108109190610814565b5090565b5b8082111561082d576000816000905550600101610815565b5090565b600061084461083f84610c92565b610c61565b90508281526020810184848401111561085c57600080fd5b610867848285610ef8565b509392505050565b600082601f83011261088057600080fd5b8135610890848260208601610831565b91505092915050565b6000813590506108a881611074565b92915050565b6000602082840312156108c057600080fd5b600082013567ffffffffffffffff8111156108da57600080fd5b6108e68482850161086f565b91505092915050565b60006020828403121561090157600080fd5b600061090f84828501610899565b91505092915050565b60006109248383610a88565b905092915050565b600061093782610cd2565b6109418185610cf5565b93508360208202850161095385610cc2565b8060005b8581101561098f57848403895281516109708582610918565b945061097b83610ce8565b925060208a01995050600181019050610957565b50829750879550505050505092915050565b6109aa81610ed8565b82525050565b6109b981610ee4565b82525050565b6109c881610ee4565b82525050565b6109df6109da82610ee4565b610fb5565b82525050565b60006109f082610cdd565b6109fa8185610d06565b9350610a0a818560208601610f07565b610a1381611056565b840191505092915050565b6000610a2982610cdd565b610a338185610d17565b9350610a43818560208601610f07565b610a4c81611056565b840191505092915050565b6000610a6282610cdd565b610a6c8185610d28565b9350610a7c818560208601610f07565b80840191505092915050565b600060c083016000830151610aa06000860182610b11565b506020830151610ab36020860182610b11565b5060408301518482036040860152610acb82826109e5565b9150506060830151610ae060608601826109b0565b506080830151610af360808601826109b0565b5060a0830151610b0660a0860182610b11565b508091505092915050565b610b1a81610eee565b82525050565b610b2981610eee565b82525050565b610b40610b3b82610eee565b610fbf565b82525050565b6000610b528288610b2f565b602082019150610b628287610b2f565b602082019150610b728286610a57565b9150610b7e82856109ce565b602082019150610b8e8284610b2f565b6020820191508190509695505050505050565b60006020820190508181036000830152610bbb818461092c565b905092915050565b6000602082019050610bd860008301846109a1565b92915050565b6000602082019050610bf36000830184610b20565b92915050565b600060c082019050610c0e6000830189610b20565b610c1b6020830188610b20565b8181036040830152610c2d8187610a1e565b9050610c3c60608301866109bf565b610c4960808301856109bf565b610c5660a0830184610b20565b979650505050505050565b6000604051905081810181811067ffffffffffffffff82111715610c8857610c87611027565b5b8060405250919050565b600067ffffffffffffffff821115610cad57610cac611027565b5b601f19601f8301169050602081019050919050565b6000819050602082019050919050565b600081519050919050565b600081519050919050565b6000602082019050919050565b600082825260208201905092915050565b600082825260208201905092915050565b600082825260208201905092915050565b600081905092915050565b6000808291508390505b6001851115610d7d57808604811115610d5957610d58610fc9565b5b6001851615610d685780820291505b8081029050610d7685611067565b9450610d3d565b94509492505050565b6000610d9182610eee565b9150610d9c83610eee565b9250610dc97fffffffffffffffffffffffffffffffffffffffffffffffffffffffffffffffff8484610dd1565b905092915050565b600082610de15760019050610e9d565b81610def5760009050610e9d565b8160018114610e055760028114610e0f57610e3e565b6001915050610e9d565b60ff841115610e2157610e20610fc9565b5b8360020a915084821115610e3857610e37610fc9565b5b50610e9d565b5060208310610133831016604e8410600b8410161715610e735782820a905083811115610e6e57610e6d610fc9565b5b610e9d565b610e808484846001610d33565b92509050818404811115610e9757610e96610fc9565b5b81810290505b9392505050565b6000610eaf82610eee565b9150610eba83610eee565b925082821015610ecd57610ecc610fc9565b5b828203905092915050565b60008115159050919050565b6000819050919050565b6000819050919050565b82818337600083830152505050565b60005b83811015610f25578082015181840152602081019050610f0a565b83811115610f34576000848401525b50505050565b60006002820490506001821680610f5257607f821691505b60208210811415610f6657610f65610ff8565b5b50919050565b6000610f7782610eee565b91507fffffffffffffffffffffffffffffffffffffffffffffffffffffffffffffffff821415610faa57610fa9610fc9565b5b600182019050919050565b6000819050919050565b6000819050919050565b7f4e487b7100000000000000000000000000000000000000000000000000000000600052601160045260246000fd5b7f4e487b7100000000000000000000000000000000000000000000000000000000600052602260045260246000fd5b7f4e487b7100000000000000000000000000000000000000000000000000000000600052604160045260246000fd5b6000601f19601f8301169050919050565b60008160011c9050919050565b61107d81610eee565b811461108857600080fd5b5056fea26469706673582212209c602fe854059a6eb8738935bbd3ebb213b2b4c35e1844eeb6f9d8cdcae44d6464736f6c63430008000033",
  "immutableReferences": {},
  "source": "// SPDX-License-Identifier: MIT\r\npragma solidity ^0.8.0;\r\n\r\ncontract SimpleBlockchain {\r\n    struct Block {\r\n        uint256 index;\r\n        uint256 timestamp;\r\n        string data; \r\n        bytes32 previousHash;\r\n        bytes32 hash;\r\n        uint256 nonce;\r\n    }\r\n\r\n    Block[] public chain;\r\n    uint256 public difficulty = 2;\r\n\r\n    constructor() {\r\n        // Create the genesis block\r\n        createBlock(\"Genesis Block\", bytes32(0));\r\n    }\r\n\r\n    function createBlock(string memory data, bytes32 previousHash) internal returns (bytes32) {\r\n        uint256 index = chain.length;\r\n        uint256 timestamp = block.timestamp;\r\n        uint256 nonce = 0;\r\n        bytes32 hash = calculateHash(index, timestamp, data, previousHash, nonce);\r\n        while(uint256(hash) >= difficultyThreshold()) {\r\n            nonce++;\r\n            hash = calculateHash(index, timestamp, data, previousHash, nonce);\r\n        }\r\n        \r\n        Block memory newBlock = Block(index, timestamp, data, previousHash, hash, nonce);\r\n        chain.push(newBlock);\r\n        return hash;\r\n    }\r\n\r\n    function calculateHash(uint256 index, uint256 timestamp, string memory data, bytes32 previousHash, uint256 nonce) internal pure returns (bytes32) {\r\n        return keccak256(abi.encodePacked(index, timestamp, data, previousHash, nonce));\r\n    }\r\n\r\n    function addBlock(string memory data) public {\r\n        bytes32 previousHash = chain[chain.length - 1].hash;\r\n        createBlock(data, previousHash);\r\n    }\r\n\r\n    function getChain() public view returns (Block[] memory) {\r\n        return chain;\r\n    }\r\n\r\n    function validateChain() public view returns (bool) {\r\n        for (uint256 i = 1; i < chain.length; i++) {\r\n            Block memory currentBlock = chain[i];\r\n            Block memory previousBlock = chain[i - 1];\r\n\r\n            if (currentBlock.hash != calculateHash(currentBlock.index, currentBlock.timestamp, currentBlock.data, previousBlock.hash, currentBlock.nonce)) {\r\n                return false; // Chain is invalid\r\n            }\r\n        }\r\n        return true; // Chain is valid\r\n    }\r\n\r\n    function difficultyThreshold() internal view returns (uint256) {\r\n        return uint256(2**(256 - difficulty));\r\n    }\r\n}\r\n",
  "sourcePath": "C:\\Users\\Admin\\simpleBlockchain\\contracts\\SimpleBlockchain.sol",
  "compiler": {
    "name": "solc",
    "version": "0.8.0+commit.c7dfd78e.Emscripten.clang"
  },
  "schemaVersion": "3.4.16",
  "updatedAt": "2025-01-26T05:23:25.727Z",
  "networkType": "ethereum",
  "devdoc": {
    "kind": "dev",
    "methods": {},
    "version": 1
  },
  "userdoc": {
    "kind": "user",
    "methods": {},
    "version": 1
  }
}