{
  "contractName": "SimpleBlockchain",
  "abi": [
    {
      "inputs": [],
      "stateMutability": "nonpayable",
      "type": "constructor"
    },
    {
      "inputs": [
        {
          "internalType": "uint256",
          "name": "",
          "type": "uint256"
        }
      ],
      "name": "chain",
      "outputs": [
        {
          "internalType": "uint256",
          "name": "index",
          "type": "uint256"
        },
        {
          "internalType": "uint256",
          "name": "timestamp",
          "type": "uint256"
        },
        {
          "internalType": "bytes32",
          "name": "previousHash",
          "type": "bytes32"
        },
        {
          "internalType": "bytes32",
          "name": "currentHash",
          "type": "bytes32"
        }
      ],
      "stateMutability": "view",
      "type": "function"
    },
    {
      "inputs": [
        {
          "internalType": "string",
          "name": "_transaction",
          "type": "string"
        }
      ],
      "name": "addTransaction",
      "outputs": [],
      "stateMutability": "nonpayable",
      "type": "function"
    },
    {
      "inputs": [],
      "name": "validateChain",
      "outputs": [
        {
          "internalType": "bool",
          "name": "",
          "type": "bool"
        }
      ],
      "stateMutability": "view",
      "type": "function"
    }
  ],
  "bytecode": "0x608060405234801562000010575f80fd5b505f8067ffffffffffffffff8111156200002f576200002e62000265565b5b6040519080825280602002602001820160405280156200006457816020015b60608152602001906001900390816200004e5790505b5090506200007b815f801b6200008260201b60201c565b506200077d565b5f808054905090505f4290505f620000a3838387876200014660201b60201c565b90505f6040518060a001604052808581526020018481526020018781526020018681526020018381525090505f81908060018154018082558091505060019003905f5260205f2090600502015f909190919091505f820151815f01556020820151816001015560408201518160020190805190602001906200012792919062000180565b5060608201518160030155608082015181600401555050505050505050565b5f8484848460405160200162000160949392919062000423565b604051602081830303815290604052805190602001209050949350505050565b828054828255905f5260205f20908101928215620001cb579160200282015b82811115620001ca578251829081620001b9919062000699565b50916020019190600101906200019f565b5b509050620001da9190620001de565b5090565b5b8082111562000201575f8181620001f7919062000205565b50600101620001df565b5090565b5080546200021390620004a2565b5f825580601f1062000226575062000245565b601f0160209004905f5260205f209081019062000244919062000248565b5b50565b5b8082111562000261575f815f90555060010162000249565b5090565b7f4e487b71000000000000000000000000000000000000000000000000000000005f52604160045260245ffd5b5f819050919050565b620002a68162000292565b82525050565b5f81519050919050565b5f82825260208201905092915050565b5f819050602082019050919050565b5f81519050919050565b5f82825260208201905092915050565b5f5b838110156200030e578082015181840152602081019050620002f1565b5f8484015250505050565b5f601f19601f8301169050919050565b5f6200033582620002d5565b620003418185620002df565b935062000353818560208601620002ef565b6200035e8162000319565b840191505092915050565b5f62000376838362000329565b905092915050565b5f602082019050919050565b5f6200039682620002ac565b620003a28185620002b6565b935083602082028501620003b685620002c6565b805f5b85811015620003f75784840389528151620003d5858262000369565b9450620003e2836200037e565b925060208a01995050600181019050620003b9565b50829750879550505050505092915050565b5f819050919050565b6200041d8162000409565b82525050565b5f608082019050620004385f8301876200029b565b6200044760208301866200029b565b81810360408301526200045b81856200038a565b90506200046c606083018462000412565b95945050505050565b7f4e487b71000000000000000000000000000000000000000000000000000000005f52602260045260245ffd5b5f6002820490506001821680620004ba57607f821691505b602082108103620004d057620004cf62000475565b5b50919050565b5f819050815f5260205f209050919050565b5f6020601f8301049050919050565b5f82821b905092915050565b5f60088302620005347fffffffffffffffffffffffffffffffffffffffffffffffffffffffffffffffff82620004f7565b620005408683620004f7565b95508019841693508086168417925050509392505050565b5f819050919050565b5f620005816200057b620005758462000292565b62000558565b62000292565b9050919050565b5f819050919050565b6200059c8362000561565b620005b4620005ab8262000588565b84845462000503565b825550505050565b5f90565b620005ca620005bc565b620005d781848462000591565b505050565b5b81811015620005fe57620005f25f82620005c0565b600181019050620005dd565b5050565b601f8211156200064d576200061781620004d6565b6200062284620004e8565b8101602085101562000632578190505b6200064a6200064185620004e8565b830182620005dc565b50505b505050565b5f82821c905092915050565b5f6200066f5f198460080262000652565b1980831691505092915050565b5f6200068983836200065e565b9150826002028217905092915050565b620006a482620002d5565b67ffffffffffffffff811115620006c057620006bf62000265565b5b620006cc8254620004a2565b620006d982828562000602565b5f60209050601f8311600181146200070f575f8415620006fa578287015190505b6200070685826200067c565b86555062000775565b601f1984166200071f86620004d6565b5f5b82811015620007485784890151825560018201915060208501945060208101905062000721565b8683101562000768578489015162000764601f8916826200065e565b8355505b6001600288020188555050505b505050505050565b610d02806200078b5f395ff3fe608060405234801561000f575f80fd5b506004361061003f575f3560e01c8063517715f0146100435780635852cc0c1461005f578063fd778dd914610092575b5f80fd5b61005d600480360381019061005891906105f6565b6100b0565b005b61007960048036038101906100749190610670565b610160565b60405161008994939291906106c2565b60405180910390f35b61009a61019a565b6040516100a7919061071f565b60405180910390f35b5f8080549050116100f6576040517f08c379a00000000000000000000000000000000000000000000000000000000081526004016100ed90610792565b60405180910390fd5b5f8060015f8054905061010991906107dd565b8154811061011a57610119610810565b5b905f5260205f20906005020190508060020182908060018154018082558091505060019003905f5260205f20015f90919091909150908161015b9190610a41565b505050565b5f818154811061016e575f80fd5b905f5260205f2090600502015f91509050805f0154908060010154908060030154908060040154905084565b5f80600190505b5f80549050811015610468575f8082815481106101c1576101c0610810565b5b905f5260205f2090600502016040518060a00160405290815f82015481526020016001820154815260200160028201805480602002602001604051908101604052809291908181526020015f905b828210156102b7578382905f5260205f2001805461022c90610874565b80601f016020809104026020016040519081016040528092919081815260200182805461025890610874565b80156102a35780601f1061027a576101008083540402835291602001916102a3565b820191905f5260205f20905b81548152906001019060200180831161028657829003601f168201915b50505050508152602001906001019061020f565b5050505081526020016003820154815260200160048201548152505090505f806001846102e491906107dd565b815481106102f5576102f4610810565b5b905f5260205f2090600502016040518060a00160405290815f82015481526020016001820154815260200160028201805480602002602001604051908101604052809291908181526020015f905b828210156103eb578382905f5260205f2001805461036090610874565b80601f016020809104026020016040519081016040528092919081815260200182805461038c90610874565b80156103d75780601f106103ae576101008083540402835291602001916103d7565b820191905f5260205f20905b8154815290600101906020018083116103ba57829003601f168201915b505050505081526020019060010190610343565b5050505081526020016003820154815260200160048201548152505090508060800151826060015114610423575f935050505061046e565b61043e825f0151836020015184604001518560600151610471565b826080015114610453575f935050505061046e565b5050808061046090610b10565b9150506101a1565b50600190505b90565b5f848484846040516020016104899493929190610c82565b604051602081830303815290604052805190602001209050949350505050565b5f604051905090565b5f80fd5b5f80fd5b5f80fd5b5f80fd5b5f601f19601f8301169050919050565b7f4e487b71000000000000000000000000000000000000000000000000000000005f52604160045260245ffd5b610508826104c2565b810181811067ffffffffffffffff82111715610527576105266104d2565b5b80604052505050565b5f6105396104a9565b905061054582826104ff565b919050565b5f67ffffffffffffffff821115610564576105636104d2565b5b61056d826104c2565b9050602081019050919050565b828183375f83830152505050565b5f61059a6105958461054a565b610530565b9050828152602081018484840111156105b6576105b56104be565b5b6105c184828561057a565b509392505050565b5f82601f8301126105dd576105dc6104ba565b5b81356105ed848260208601610588565b91505092915050565b5f6020828403121561060b5761060a6104b2565b5b5f82013567ffffffffffffffff811115610628576106276104b6565b5b610634848285016105c9565b91505092915050565b5f819050919050565b61064f8161063d565b8114610659575f80fd5b50565b5f8135905061066a81610646565b92915050565b5f60208284031215610685576106846104b2565b5b5f6106928482850161065c565b91505092915050565b6106a48161063d565b82525050565b5f819050919050565b6106bc816106aa565b82525050565b5f6080820190506106d55f83018761069b565b6106e2602083018661069b565b6106ef60408301856106b3565b6106fc60608301846106b3565b95945050505050565b5f8115159050919050565b61071981610705565b82525050565b5f6020820190506107325f830184610710565b92915050565b5f82825260208201905092915050565b7f4e6f20626c6f636b7320696e2074686520636861696e2e0000000000000000005f82015250565b5f61077c601783610738565b915061078782610748565b602082019050919050565b5f6020820190508181035f8301526107a981610770565b9050919050565b7f4e487b71000000000000000000000000000000000000000000000000000000005f52601160045260245ffd5b5f6107e78261063d565b91506107f28361063d565b925082820390508181111561080a576108096107b0565b5b92915050565b7f4e487b71000000000000000000000000000000000000000000000000000000005f52603260045260245ffd5b5f81519050919050565b7f4e487b71000000000000000000000000000000000000000000000000000000005f52602260045260245ffd5b5f600282049050600182168061088b57607f821691505b60208210810361089e5761089d610847565b5b50919050565b5f819050815f5260205f209050919050565b5f6020601f8301049050919050565b5f82821b905092915050565b5f600883026109007fffffffffffffffffffffffffffffffffffffffffffffffffffffffffffffffff826108c5565b61090a86836108c5565b95508019841693508086168417925050509392505050565b5f819050919050565b5f61094561094061093b8461063d565b610922565b61063d565b9050919050565b5f819050919050565b61095e8361092b565b61097261096a8261094c565b8484546108d1565b825550505050565b5f90565b61098661097a565b610991818484610955565b505050565b5b818110156109b4576109a95f8261097e565b600181019050610997565b5050565b601f8211156109f9576109ca816108a4565b6109d3846108b6565b810160208510156109e2578190505b6109f66109ee856108b6565b830182610996565b50505b505050565b5f82821c905092915050565b5f610a195f19846008026109fe565b1980831691505092915050565b5f610a318383610a0a565b9150826002028217905092915050565b610a4a8261083d565b67ffffffffffffffff811115610a6357610a626104d2565b5b610a6d8254610874565b610a788282856109b8565b5f60209050601f831160018114610aa9575f8415610a97578287015190505b610aa18582610a26565b865550610b08565b601f198416610ab7866108a4565b5f5b82811015610ade57848901518255600182019150602085019450602081019050610ab9565b86831015610afb5784890151610af7601f891682610a0a565b8355505b6001600288020188555050505b505050505050565b5f610b1a8261063d565b91507fffffffffffffffffffffffffffffffffffffffffffffffffffffffffffffffff8203610b4c57610b4b6107b0565b5b600182019050919050565b5f81519050919050565b5f82825260208201905092915050565b5f819050602082019050919050565b5f82825260208201905092915050565b5f5b83811015610bad578082015181840152602081019050610b92565b5f8484015250505050565b5f610bc28261083d565b610bcc8185610b80565b9350610bdc818560208601610b90565b610be5816104c2565b840191505092915050565b5f610bfb8383610bb8565b905092915050565b5f602082019050919050565b5f610c1982610b57565b610c238185610b61565b935083602082028501610c3585610b71565b805f5b85811015610c705784840389528151610c518582610bf0565b9450610c5c83610c03565b925060208a01995050600181019050610c38565b50829750879550505050505092915050565b5f608082019050610c955f83018761069b565b610ca2602083018661069b565b8181036040830152610cb48185610c0f565b9050610cc360608301846106b3565b9594505050505056fea26469706673582212208187424688b4cbf3d041da8cfac093db3a896a6e6b4001388333e5f2850a8bed64736f6c63430008150033",
  "immutableReferences": {},
  "source": "// SPDX-License-Identifier: MIT\r\npragma solidity ^0.8.0;\r\n\r\n// Defining SimpleBlockchain contract\r\ncontract SimpleBlockchain {\r\n    \r\n    // These are the Structures to represent a block in the blockchain\r\n    struct Block {\r\n        uint256 index;          // Block number\r\n        uint256 timestamp;      // Timestamp of block creation\r\n        string[] transactions;   // List of transactions in the block\r\n        bytes32 previousHash;    // Hash of the previous block\r\n        bytes32 currentHash;     // Hash of the current block\r\n    }\r\n\r\n    Block[] public chain; // Array to hold the chain of blocks\r\n\r\n    // Constructor to initialize the blockchain with the genesis block\r\n    constructor() {\r\n        // Creating the genesis block with no transactions and a previous hash of 0\r\n        string[] memory emptyArray = new string[](0); // Properly initialize an empty string array\r\n        createBlock(emptyArray, bytes32(0)); // Create the genesis block\r\n    }\r\n\r\n    // Internal function to create a new block\r\n    function createBlock(string[] memory _transactions, bytes32 _previousHash) internal {\r\n        uint256 index = chain.length; \r\n        uint256 timestamp = block.timestamp; \r\n        bytes32 currentHash = calculateHash(index, timestamp, _transactions, _previousHash); \r\n\r\n        Block memory newBlock = Block({\r\n            index: index,\r\n            timestamp: timestamp,\r\n            transactions: _transactions,\r\n            previousHash: _previousHash,\r\n            currentHash: currentHash\r\n        });\r\n\r\n        chain.push(newBlock); // Adding the new block to the chain\r\n    }\r\n\r\n    // Function to calculate the hash of a block\r\n    function calculateHash(uint256 _index, uint256 _timestamp, string[] memory _transactions, bytes32 _previousHash) internal pure returns (bytes32) {\r\n        // Using keccak256 hashing algorithm to generate the hash\r\n        return keccak256(abi.encode(_index, _timestamp, _transactions, _previousHash));\r\n    }\r\n\r\n    // Function to add a transaction to the latest block\r\n    function addTransaction(string memory _transaction) public {\r\n        require(chain.length > 0, \"No blocks in the chain.\"); // Ensure there is at least one block\r\n        Block storage latestBlock = chain[chain.length - 1];\r\n        latestBlock.transactions.push(_transaction);\r\n    }\r\n\r\n    // Function to validate the integrity of the blockchain\r\n    function validateChain() public view returns (bool) {\r\n        for (uint256 i = 1; i < chain.length; i++) {\r\n            Block memory currentBlock = chain[i]; // It will get the current block\r\n            Block memory previousBlock = chain[i - 1]; // It will get the previous block\r\n\r\n            // Checking if the previous hash of the current block matches the hash of the previous block\r\n            if (currentBlock.previousHash != previousBlock.currentHash) {\r\n                return false; // Chain is invalid\r\n            }\r\n\r\n            // Checking if the current hash is correctly calculated\r\n            if (currentBlock.currentHash != calculateHash(currentBlock.index, currentBlock.timestamp, currentBlock.transactions, currentBlock.previousHash)) {\r\n                return false; // Chain is invalid\r\n            }\r\n        }\r\n        return true; // Chain is valid\r\n    }\r\n}",
  "sourcePath": "C:\\Users\\Admin\\simpleBlockchain\\contracts\\SimpleBlockchain.sol",
  "compiler": {
    "name": "solc",
    "version": "0.8.21+commit.d9974bed.Emscripten.clang"
  },
  "schemaVersion": "3.4.16",
  "updatedAt": "2025-01-25T14:05:23.189Z",
  "devdoc": {
    "kind": "dev",
    "methods": {},
    "version": 1
  },
  "userdoc": {
    "kind": "user",
    "methods": {},
    "version": 1
  }
}